S01700006275696C642F697269732F6D61696E2E7372656343
S11300000C947E010C949D010C949D010C949D0113
S11300100C949D010C949D010C949D010C949D01E4
S11300200C949D010C949D010C949D010C949D01D4
S11300300C949D010C94811E0C949D010C94C91E7A
S11300400C94E21F0C94951F0C94CC1F0C94D71F96
S11300500C941A200C949D010C949D010C949D0108
S11300600C94DD1E0C94371C0C949D010C949F1C65
S11300700C949D010C949D010C949D010C94F31D12
S11300800C94D21D0C94DD1D0C94E81D0C94061EDA
S11300900C94B51D0C949D010C94C71D0C949D01EA
S11300A00C949D010C949D010C949D010C949D0154
S11300B00C949D010C949D010C949D010C949D0144
S11300C00C949D010C949D010C949D01E613C314A2
S11300D0F614F81408153B1566158D159B15A71510
S11300E0DB152D1659167416B216CF16F41697177B
S11300F0E8184319581900020E060C0400002110D8
S1130100422063308440A550C660E770088129917D
S11301104AA16BB18CC1ADD1CEE1EFF13112100225
S113012073325222B5529442F772D66239931883CD
S11301307BB35AA3BDD39CC3FFF3DEE362244334F1
S113014020040114E664C774A44485546AA54BB51D
S113015028850995EEE5CFF5ACC58DD553367226C5
S113016011163006D776F6669556B4465BB77AA76D
S113017019973887DFF7FEE79DD7BCC7C448E55811
S11301808668A7784008611802282338CCC9EDD9BD
S11301908EE9AFF9488969990AA92BB9F55AD44A65
S11301A0B77A966A711A500A333A122AFDDBDCCB0D
S11301B0BFFB9EEB799B588B3BBB1AABA66C877C31
S11301C0E44CC55C222C033C600C411CAEED8FFD5D
S11301D0ECCDCDDD2AAD0BBD688D499D977EB66E05
S11301E0D55EF44E133E322E511E700E9FFFBEEFAD
S11301F0DDDFFCCF1BBF3AAF599F788F8891A9816F
S1130200CAB1EBA10CD12DC14EF16FE18010A10058
S1130210C230E3200450254046706760B983989348
S1130220FBA3DAB33DC31CD37FE35EF3B1029012A8
S1130230F322D2323542145277625672EAB5CBA514
S1130240A89589856EF54FE52CD50DC5E234C324F8
S1130250A01481046674476424540544DBA7FAB7E8
S11302609987B8975FE77EF71DC73CD7D326F23648
S11302709106B01657667676154634564CD96DC934
S11302800EF92FE9C899E9898AB9ABA94458654898
S113029006782768C018E1088238A3287DCB5CDB88
S11302A03FEB1EFBF98BD89BBBAB9ABB754A545AE8
S11302B0376A167AF10AD01AB32A923A2EFD0FED54
S11302C06CDD4DCDAABD8BADE89DC98D267C076C38
S11302D0645C454CA23C832CE01CC10C1FEF3EFF28
S11302E05DCF7CDF9BAFBABFD98FF89F176E367E88
S11302F0554E745E932EB23ED10EF01E11241FBED5
S1130300CFEFD1E2DEBFCDBF12E0A0E0B2E0EAE081
S1130310F7E400E00BBF02C007900D92A832B107CA
S1130320D9F71CE0A8E2B2E001C01D92AC35B107D8
S1130330E1F70E94231A0C9484230C9400008FB7D5
S1130340F894992708958FBF0895982F8FB7F8943C
S1130350282FE92FFF27E15AFD4F80818F3F99F421
S1130360E091480CE91779F08091CE0B8F3F19F496
S11303709093CE0B04C0FF27E15AFD4F90839093D6
S1130380480C80E001C085E02FBF99270895809133
S11303902802882319F480E090E0089581E090E039
S11303A00895882319F08CB5806402C08CB58F7BC6
S11303B08CBD08951F93CF93DF93982F20E08FB7C0
S11303C0F894C82F80912802823089F58091000228
S11303D0891769F5922F809102028F3F09F491E009
S11303E09923F9F49FEF90930002891779F0282F4D
S11303F03327F901ED5CF64F80818093020289175F
S113040011F4909301029083C90102C08FEF90E030
S11304108093350981E08093280284E10E94A5013C
S113042005C08FEF809300022093280221E0CFBF04
S1130430213019F480E090E002C081E090E0182FB0
S11304408FB7F894C82FDD270E94C7019927882306
S113045011F40E94D101CFBF812F9927DF91CF9151
S11304601F910895282F8FB7F89499272093740229
S11304708FBF80E10E94A5010895FB0121E030E0D7
S113048002C0220F331F8A95E2F780A9822B80AB2A
S1130490089520E030E0FC018181992787709070F5
S11304A0029711F421E030E0C9010895C19608953E
S11304B0FC01862F8E5F8083089501960895FC01C8
S11304C040E050E082819927982F882721813327A3
S11304D0822B932B87749C7C8154984811F441E0BF
S11304E050E0CA010895FC0187819927382F2227FB
S11304F086819927822B932B089583E090E00895B9
S11305008FB7F894682F772780919108909192087B
S1130510A0919308B09194082091840030918500B3
S1130520B09B07C00196A11DB11D2091840030919C
S1130530850044275527DC0199278827822B932B94
S1130540A42BB52B6FBFBC01CD010895AC018FB7AF
S1130550F894E82F2091840030918500C901841B10
S1130560950B03968617970720F0B9016D5F7F4FAF
S113057002C0640F751F6115710511F461E070E02C
S113058061507040709389006093880082E086BB5C
S113059080916F00826080936F00EFBF08959C018B
S11305A081E08093B80A809331098091840090910E
S11305B08500B9010E94A6020895FB0121E030E004
S11305C002C0220F331F8A95E2F780A9822399275C
S11305D00895FC018081825099270895EF92FF923B
S11305E00F931F937C018FB7F89499270091780299
S11305F0109179020F5E1E4F1093790200937802D6
S1130600015111408FBF82E10E94A501C801B701C9
S11306100E94F8218A5D9E4F1F910F91FF90EF90E9
S113062008958AE090E008958FB7F894992720916F
S11306300702309108028FBFC9010895EF92FF921B
S11306400F931F93CF93DF93EC01EE24FF24898152
S1130650992780729070882389F0CE010E945F02EE
S1130660882361F0CE010E9473028C010E9414035E
S11306700817190719F4E1E0EE2EF12CC701DF91F8
S1130680CF911F910F91FF90EF9008950E94110355
S11306908E5F99270895262F275F622F0E945802A4
S11306A0089587E290E008951F93CF93DF93EC01C0
S11306B0162F0E9451038B50811718F480E090E0AC
S11306C006C0CE010E944603C80FD11DCE01DF91A2
S11306D0CF911F91089520914602222319F085E0BD
S11306E090E0089590937D0A80937C0A81E0809342
S11306F046022093A40980E10E94A50180E090E0D5
S11307000895CF93DF93FC01DF011196662359F01E
S1130710ED0189819927982F882721813327822BFE
S1130720932B80620AC0ED0189819927982F88272D
S113073021813327822B932B8F7D8183892F9927C6
S11307408983DF91CF9108950F931F93CF93DF9304
S1130750EC010E941103FE01E80FF11D8FE3808379
S1130760809190088F5F809390088B8325E000919F
S113077057021091580201151105F1F4CE010E949F
S11307807D02885FFE01E81BF10983A994A9892BE6
S113079021F061E0CE010E948103CE010E946B032F
S11307A09927282F882341F4D0935802C0935702E5
S11307B01093810200938002822F9927DF91CF91B9
S11307C01F910F910895CF93982F20E08FB7F8943D
S11307D0C82F80912902823089F5809103028917FC
S11307E069F5922F809105028F3F09F491E09923D6
S11307F0F9F49FEF90930302891779F0282F332798
S1130800F901E258FD4F808180930502891711F4A4
S1130810909304029083C90102C08FEF90E080930B
S11308207B0281E0809329028DE00E94A50105C02E
S11308308FEF809303022093290221E0CFBF213060
S113084019F480E090E002C081E090E0CF91089537
S1130850EF92FF920F931F93CF93DF93082F7B01A7
S1130860EA01122F0E9451038B50811718F486E07D
S113087090E091C0CE010E945F02882331F481E4AC
S113088098E8898388E890E08A831E5F612FCE010F
S11308900E944B030E9414038887892F9927898714
S11308A08FB7F8949927209106028FBF822F99273A
S11308B08C831D82CE010E9411038F5FFE01E80F1D
S11308C0F11D0083EE828F2D99278F838FB7F894C3
S11308D0282F332790912902992349F482E08093A9
S11308E02902909303022FBF80E090E003C02FBF42
S11308F081E090E0082F1127002369F4CE010E94C3
S1130900A4039927C82F882319F0802F0E94E3039A
S11309108C2F99273FC0D0937D02C0937C028FB760
S1130920F894C82FDD274C2F90912902992361F464
S113093081E08093290290937B028DE00E94A501BF
S1130940CFBF80E090E025C090E080917E028F3F91
S113095021F480910402882309F491E0292F33279C
S1130960222399F4809105028F3F19F42093050204
S113097007C080910402E82FFF27E258FD4F20832F
S11309801092040280E090E002C085E090E04FBF46
S1130990992799279927DF91CF911F910F91FF9064
S11309A0EF900895BF92CF92DF92EF92FF920F9350
S11309B01F93CF93DF937C01EB016A01B22E6CE1AC
S11309C080E89AE00E945403FC0180911202909105
S11309D013028583892F99278483E3828F2D992796
S11309E08283C1838D2F99278083C682B7823896EC
S11309F0D80144E1B42E0D900192BA94E1F730E8A5
S1130A00C32E3AE0D32EC093860A8093870AC60188
S1130A100E9411038F5FC82FDD27CC0DDD1D86E0FA
S1130A208883E090CC0BF090CD0BE114F10419F025
S1130A3085E090E029C0D092CD0BC092CC0B6EE142
S1130A40C6010E944B03809109028823E1F088814A
S1130A50082F1127C6010E947302B09209022CE1EB
S1130A60A601BC01802F0E9428049927282F8823DF
S1130A7039F081E080930902F092CD0BE092CC0B27
S1130A80822F992701C0C7019927DF91CF911F9128
S1130A900F91FF90EF90DF90CF90BF9008950F9348
S1130AA01F938C010E947D02885F081B1109F801C5
S1130AB085A996A91F910F910895CF92DF92EF9285
S1130AC0FF920F931F931092090220E08091CC0BA8
S1130AD09091CD0B892B19F08091300980FD21E094
S1130AE010920902222319F081E080930902809177
S1130AF00902882311F50091CC0B1091CD0BC8018C
S1130B000E9411038F5FF801E80FF11D8081C82E48
S1130B10DD24C8010E9473027C01C8010E94E9021D
S1130B208B509927282FA801B7018C2D0E942804E7
S1130B30882319F08CE00E94A5011F910F91FF906A
S1130B40EF90DF90CF900895FF920F931F93CF9370
S1130B50DF93C0915702D09158021092580210921C
S1130B6057028091100A8D7F8093100A00918002B1
S1130B7010918102CE010E947D02885FFE01E81B74
S1130B80F10914AB03ABCE010E941103FE01E80F7F
S1130B90F11D80818F33C9F480E00E94E303F0905B
S1130BA00902FF2091F40091CC0B1091CD0B0C178E
S1130BB01D0759F41092CD0B1092CC0B0E945D05C9
S1130BC000581A4011F4F0922F02DF91CF911F9137
S1130BD00F91FF900895EF920F931F93AE2D99E01C
S1130BE0899FF0011124E351F64F408351836283BE
S1130BF073830483158326833783A17080858E7F56
S1130C008A2B826080878AE00E94A5011F910F9140
S1130C10EF9008958FB7F894282F332782B192E08C
S1130C20892782B92FBF0895CF938FB7F894C82F1F
S1130C3080910F0C882339F40E94A501882319F4AC
S1130C4081E080930F0CCFBFCF910895CF93DF93B2
S1130C50382FFA01422FDF0115962D3118F082E06A
S1130C6090E051C0ED016983872F992785833387ED
S1130C702187C0913F02D0914002209719F085E06E
S1130C8090E040C08FB7F894282F332765E070E0D8
S1130C9060933D0210923C02F0934202E0934102C1
S1130CA082E090E09093400280933F0210923A02D7
S1130CB010923B02495F862F840F80933E022FBF20
S1130CC090E08FB7F894282F332780916D098823FB
S1130CD031F481E080936D0990936E09982F2FBFB2
S1130CE0992321F00E941406CE0101C0CB01882370
S1130CF019F480E090E006C01092400210923F0286
S1130D0081E090E09927DF91CF9108959F92AF926F
S1130D10BF92CF92DF92EF92FF920F931F93CF93E4
S1130D20DF935B016C019924EE24FF24EDEEF9E0DE
S1130D30C085C1FFE9C00081118122813381D601C0
S1130D40C501801B910BA20BB30B448155816681B5
S1130D50778184179507A607B70708F4D5C0C0FFA5
S1130D6003C0CD7FC08708C0040F151F261F371F7F
S1130D70008311832283338381E0E816F10499F11F
S1130D80C2E0EC16F10424F4E114F10459F0C5C0F6
S1130D9082E0E816F104B1F1C3E0EC16F10409F4C1
S1130DA0A9C0BBC080912A0290912B020297A4F49F
S1130DB0870129E0A7016FEF7FEF809112029091E4
S1130DC013020E94D20480912A0290912B02019670
S1130DD090932B0280932A028FB7F894282F3327FD
S1130DE082B194E083C000E010E029E0A8016FEF35
S1130DF07FEF80911202909113020E94D2040E940C
S1130E000A068BC080912E02882309F086C0E090E8
S1130E108608F0908708E114F10409F47EC0870184
S1130E200E5F1F4F81E080932E026CE188E399E00E
S1130E300E945403FC01E7018E819927982F88278B
S1130E402F813327822B932B8583892F99278483A2
S1130E50E8018A819927982F88272B813327822BB1
S1130E60932B8383892F99278283E7018A8199278A
S1130E70982F8827E80129813327822B932B81839C
S1130E80892F99278083E7018885868389858783CD
S1130E90CF010896D7011A9624E10D90EC0109922E
S1130EA0CE012150D1F780819927782F662781813F
S1130EB09927682B792B2CE148E359E08CE00E94B8
S1130EC02606E0918608F0918708309749F08081E2
S1130ED091819093870880938608CF010E942123F3
S1130EE08FB7F894282F332782B191E0892782B9EC
S1130EF02FBF13C08091570290915802892B69F03B
S1130F008EE00E94A50109C0939439960894E11CCF
S1130F10F11C83E0891508F00BCF8AE00E94A5013B
S1130F20DF91CF911F910F91FF90EF90DF90CF90C1
S1130F30BF90AF909F900895FC0185819927382F29
S1130F40222786819927822B932B0895FC01838580
S1130F5099270895DF92EF92FF920F931F93CF93F7
S1130F60DF93EB01D42E8E83892F99278D8384E61A
S1130F708B87E090E309F090E409E114F10419F09F
S1130F8085E090E028C07093E4096093E309498701
S1130F9080910A028823F1F0CB010E94A607082F52
S1130FA01127CE010E949C0710920A022D2DAE013A
S1130FB0BC01802F0E9426069927282F882339F008
S1130FC081E080930A02F092E409E092E309822F1F
S1130FD0992701C0C7019927DF91CF911F910F91E4
S1130FE0FF90EF90DF90089520E08FB7F894982F4A
S1130FF080917B0A8A3029F480918402843009F438
S113100021E09FBF222351F082E00E94A5018FB707
S1131010F8949927109245028FBF08958FB7F894DA
S1131020282F332781E0809345022FBF0895982FFE
S113103080913902882311F4992351F0809144025C
S113104080FF02C08B7F01C08D7F8093440208958E
S113105031E030933902809111028093380220915B
S11310604402822F83238093590280910B02909132
S11310700C0290933702809336028091430280934E
S11310803502322731702E7F232B822F8170E82F77
S1131090FF27EE0FFF1FE35FFD4F80819181909347
S11310A00C0280930B02277E2093440285E00E9469
S11310B0A5010895262FECEFF0E02927220FF11D5A
S11310C0E20FF11DC895982F802D3196C895902573
S11310D008951F93CF93182FC62F809184029927C8
S11310E08130910509F1823091051CF4009749F093
S11310F025C18230910509F454C0039709F464C0F2
S11311001DC1112309F441C11092B40B1092B30B09
S113111010927F0A1092C70B109288029093E809EC
S11311208093E70981E04DC0112309F02EC180911D
S1131130E7099091E8090E945A089093E80980937E
S1131140E70982E080938402C093C70BC43409F09A
S1131150F5C0C43409F0F2C0212F8091440280FF0D
S113116004C0982F9695969502C0982F96959170E5
S113117099F480FF02C0846001C0826080934402BD
S113118080914402877E88608093440210924302D7
S11311908FEF8093110201C025E0222309F4F5C0EA
S11311A0CDC0112309F0CAC0609388028091E70979
S11311B09091E8090E945A089093E8098093E709FE
S11311C083E080938402E1C080917F0A8F3F09F419
S11311D0B5C0112309F449C0823008F4AFC090911E
S11311E0B30B992319F0E92FE15001C0E2E09E2FDF
S11311F0FF27ED54F44F8281282F3327322F2227E3
S1131200992319F0E92FE15001C0E2E0FF27ED54E2
S1131210F44F82819927282B392B8091E7099091EB
S1131220E8092817390709F089C080E00E941708E7
S1131230309188028091D9092091DA09982F9F5F13
S1131240963008F090E0921709F478C0E82FFF2751
S1131250E752F64F32838F5F8093D909863010F0BE
S11312601092D9090E94140669C0823008F452C051
S11312708091B40BE82FFF27ED54F44F8281482F5F
S11312805527342F20914402822F86958695869582
S1131290837099278130910519F0029781F01FC05E
S11312A0822F877E806180934402442311F485E079
S11312B001C080E0809343023093110210C08091FA
S11312C04302833360F4E0910B02F0910C02E80FC7
S11312D0F11D4083809143028F5F8093430280918C
S11312E0B40BE82FFF27ED54F44F92818F5F809366
S11312F0B40B833010F01092B40B892F9927682F08
S11313008091E7099091E8090E945A089093E809AE
S11313108093E7098091B30BE82FFF27ED54F44F36
S1131320C2838F5F8093B30B833010F01092B30BA2
S113133080917F0A8F5F80937F0A27C01092B40B3D
S11313401092B30B1092840210927F0A1092C70B72
S1131350109288021092E8091092E70980913402F1
S11313608D7F80933402C1E08C2F0E9417088091F6
S11313704502882331F084E0809384020E94F407BC
S113138004C0112311F0C0938402CF911F910895DA
S1131390982F8FB7F894282F33279093C600809105
S11313A0C00080648093C0002FBF0895CF93DF9363
S11313B0FC016115710519F481E090E028C0C09129
S11313C03609D0913709209719F085E090E01FC0C5
S11313D07093BC0B6093BB0B9093370980933609D1
S11313E081E0809387028091C00080648093C00074
S11313F08091C10080648093C1002196D0938602BD
S1131400C0938502219780810E94C809CE01DF9193
S1131410CF910895982F8D57823068F480913402CB
S113142081608093340280E2892780937E0A8DE76D
S11314308093750202C09093750261E070E085E7C5
S113144092E00E94D60999270895809134028E7FF4
S1131450809334028EE78093750261E070E085E743
S113146092E00E94D609992708958FB7F894982F8F
S11314708091B20020915A0230915B0240915C024B
S113148050915D02B99B11C08091B300280F311DAA
S1131490411D511D8091B200280F311D411D511D68
S11314A02F5F3F4F4F4F5F4F04C0280F311D411D29
S11314B0511D9FBFCA01B90108950F931F93CF9384
S11314C0DF9310E08FB7F894482F5527042F20910D
S11314D0B3009091B20087B3291711F081FF02C0C5
S11314E04FBF71C0809189028823B1F10E94350AEF
S11314F0DC01CB01C0915002D0915102E091520223
S1131500F09153028C1B9D0BAE0BBF0B2091D30BA0
S11315103091D40B4091D50B5091D60B8217930781
S1131520A407B50720F01093890211E015C02C0F11
S11315303D1F4E1F5F1F80915A0290915B02A09144
S11315405C02B0915D02281B390B4A0B5B0B273EF2
S113155031054105510510F086EE05C0223010F426
S113156082E001C0822F682F61508091B60083FD14
S1131570FCCF8091B200861709F46F5F20915A0264
S113158030915B0240915C0250915D02DA01C90125
S1131590860F911DA11DB11D0196A11DB11D8217BC
S11315A09307A407B50718F460915A0260958091D7
S11315B0B60083FDFCCF6093B3000FBF112319F075
S11315C089E00E94A501DF91CF911F910F910895A9
S11315D0EF92FF920F931F937B018C018FB7F894C6
S11315E0682F772781E080938902E0925002F0927D
S11315F0510200935202109353022093D30B309361
S1131600D40B4093D50B5093D60B6FBF0E945D0A49
S11316101F910F91FF90EF900895AF92BF92CF92D8
S1131620DF92EF92FF920F931F93F82E5A016B01F2
S11316300E94350ADC01CB01EE2496018501AC0140
S1131640BD018F2D0E94EB051F910F91FF90EF902C
S1131650DF90CF90BF90AF900895882319F08CB598
S1131660806802C08CB58F778CBD0895EF92FF928D
S11316701F9310E0812F0E94D1018FB7F894E82EB8
S1131680FF24229A2398219A8CB580618CBD812FE6
S11316900E942D0B8DB581608DBD8CB5877F8CBD6F
S11316A08CB58B7F8CBD8CB58E7F8CBD81E00E9408
S11316B0D101EFBE1F91FF90EF9008951F93CF9338
S11316C0DF93182F8FB7F894C82FDD270E94C70126
S11316D0882311F40E94360BCFBF8FB7F894C82F1C
S11316E0DD272C2F80912802882361F481E08093E8
S11316F028021093350984E10E94A501CFBF80E040
S113170090E026C090E0E12FFF27ED5CF64F80814A
S11317108F3F21F480910102811709F491E099230C
S113172099F4809102028F3F19F41093020207C0CA
S113173080910102E82FFF27ED5CF64F1083109390
S1131740010280E090E002C085E090E02FBF99277D
S11317509927DF91CF911F910895CF938FB7F89474
S1131760282F3327922F80910002882341F48091FF
S11317702802823021F42FBF81E090E003C09FBF94
S113178080E090E0892BF1F48FB7F894282F332769
S113179090912802992349F482E08093280290933F
S11317A000022FBF80E090E003C02FBF81E090E0F3
S11317B09927C82F882311F40E94360BCC2329F4CF
S11317C0209A289A81E090E005C080E00E945E0B98
S11317D080E090E0CF910895AF92BF92CF92DF92D4
S11317E0EF92FF920F931F93CF93DF935C0180914D
S11317F04702882309F08FC08091D90B853009F006
S11318008AC00E94AD0B882309F485C08091B80B6F
S1131810882309F080C0B50182E00E94DD0288239C
S113182039F0C5010E945602FC0181818F7001C00C
S11318308FE0682F8091A509681789F06093A50946
S1131840962F9068289885EC8EBD0DB407FEFDCFC9
S11318508EB59EBD0DB407FEFDCF8EB5289AC50189
S11318600E945F02882301F1289886E88EBD0DB49A
S113187007FEFDCF8EB51EBC0DB407FEFDCF8EB5A1
S1131880289A282F33272F71307090918F088091D8
S11318907F02890F912D911D63E0959587956A9537
S11318A0E1F782179307BCF1289882EC8EBD0DB442
S11318B007FEFDCF8EB589E08EBD0DB407FEFDCFCA
S11318C08EB5289A0E9480026B017C01B50184E0E8
S11318D00E94DD02882341F0C5010E94E902835081
S11318E0E501C80FD11D02C0C0E0D0E0289881E80E
S11318F08EBD0DB407FEFDCF8EB51EBC0DB407FE24
S1131900FDCF8EB5289A99278F719070099731F081
S113191087E08093D90B85E090E0B4C08FB7F8944A
S113192099272F9A00918400109185008FBF2F98DA
S1131930289880E68EBDC5010E945D02FC01D50198
S11319408C919927682F982F0DB407FEFDCF8EB583
S11319509EBD625097E0691708F4962F691B219188
S11319600DB407FEFDCF8EB52EBD9150C1F70C19F5
S11319701D090E551F4FC801AA2797FDA095BA2F20
S1131980C80ED91EEA1EFB1E2097B9F088819981E2
S1131990AA81BB818C199D09AE09BF098B83292FAC
S11319A03A2F4B2F55272A839D01442755272983F6
S11319B08B2F9927AA27BB27888361506F3F39F063
S11319C091910DB407FEFDCF8EB59EBDF6CF0DB43B
S11319D007FEFDCF8EB5289A289882EC8EBD0DB4F3
S11319E007FEFDCF8EB586E08EBD0DB407FEFDCF9C
S11319F08EB5289A209779F188819927AA27BB2741
S1131A00B82FAA27992788272981332744275527C0
S1131A10A90133272227822B932BA42BB52B2A81B0
S1131A20332744275527542F432F322F2227822B25
S1131A30932BA42BB52B2B81332744275527822B9B
S1131A40932BA42BB52B8C0D9D1DAE1DBF1D888320
S1131A509983AA83BB83B50181E00E943D02C5013D
S1131A600E947D028C5FA81AB108F501C3AAD4AA0A
S1131A70E5AAF6AA86E08093D90B84E08093470216
S1131A8080E090E0DF91CF911F910F91FF90EF9054
S1131A90DF90CF90BF90AF9008951F93182F81E0EF
S1131AA00E94D1011EBD0DB407FEFDCF8EB599274E
S1131AB01F910895AF92BF92CF92DF92EF92FF925F
S1131AC00F931F93CF93DF938091B80B882309F46E
S1131AD01FC10E94AD0B882309F41AC18FB7F89473
S1131AE09927C0912E09D0912F098FBF1092B80B5E
S1131AF028988FE88EBD0DB407FEFDCF8EB51EBCB1
S1131B000DB407FEFDCF8EB5289A982FA82EBB24BE
S1131B10A0FE0CC080914702833011F0873031F46D
S1131B2085E08093D90B88E080934702A2FE6DC0C4
S1131B3080914702863011F4109247028091470247
S1131B40882309F062C0943009F04EC0289886E8D2
S1131B508EBD0DB407FEFDCF8EB51EBC0DB407FEC1
S1131B60FDCFFEB4289A2FE1F22280917F02982FB4
S1131B70969596953F2D391B830F80937F02009194
S1131B80540210915502F80180A98B7F80ABB801F3
S1131B9083E00E943D02C8010E945602FC01F182CA
S1131BA00E948002DC01CB01C81BD90B27977E0160
S1131BB00027F7FC0095102FE80EF91E0A1F1B1FC3
S1131BC0C0905402D0905502B60181E00E943D02BB
S1131BD0C6010E947D028C5FC81AD108F601E3AAEF
S1131BE0F4AA05AB16AB0EC0E0915402F091550275
S1131BF080A9877F80ABE0915402F091550280A9BF
S1131C008D7F80AB85E080934702A3FE81C08091E5
S1131C104702843009F04AC085E08093D90B1092C2
S1131C20470280918A08833019F410928A0870C0A0
S1131C30C091A209D091A30900E010E089819927FD
S1131C4080729070882369F0CE010E945F0288231D
S1131C5041F0CE010E9473028F5F9F4F11F001E0AB
S1131C6010E0012BD9F020E030E080913109882385
S1131C7011F421E030E0232B89F012E01093B80A2C
S1131C8081E080933109809184009091850061EE18
S1131C9072E00E94A60210938A083AC010928A0841
S1131CA01092100C80E00E94320232C0853081F51F
S1131CB08091D90B873091F4289882EC8EBD0DB4B5
S1131CC007FEFDCF8EB586E08EBD0DB407FEFDCFB9
S1131CD08EB5289A85E08093D90B17C0289886E89A
S1131CE08EBD0DB407FEFDCF8EB51EBC0DB407FE30
S1131CF0FDCF8EB5289A8F7190918F08292F269544
S1131D002695821B980F90938F0889E08093470251
S1131D1090914702992309F4FCC2993009F02DC22D
S1131D20289880E28EBD0DB407FEFDCF8EB51EBC93
S1131D300DB407FEFDCF8EB5C82FDD271C2FC33091
S1131D4008F4D2C08C2F99278A970CF0CDC01EBC02
S1131D5080915402909155020E945D026C01E091C1
S1131D605402F0915502C083EE24FF24125027E060
S1131D70121708F4212F121BF6010894C11CD11C60
S1131D800DB407FEFDCF8EB51EBC99278083A70135
S1131D904827042E4295407F4025052E542F429516
S1131DA04F700426469554274527440F440F440F8B
S1131DB040257A01215001F7C0915402D091550277
S1131DC0CE010E944902282F33272223E9F020E084
S1131DD030E080918A088230A9F4E091A209F09160
S1131DE0A309A9019B818381891741F489819927DA
S1131DF087709070029711F441E050E0452B11F088
S1131E0021E030E0C9010DC08FB7F894482F552761
S1131E10922F8091EB09833008F491E04FBF892F12
S1131E209927882309F460C011501F3FF9F0F60187
S1131E300894C11CD11C0DB407FEFDCF8EB51EBC89
S1131E4099278083F701E8270E2EE295E07FE025AD
S1131E500F2EFE2FE295EF700E26E695FE27EF2754
S1131E60EE0FEE0FEE0FE0257F01DECF0DB407FE7F
S1131E70FDCF8EB51EBC97012827022E2295207F08
S1131E802025032E322F22952F70022626953227E5
S1131E902327220F220F220F20250DB407FEFDCF8A
S1131EA08EB51EBC2827022E2295207F2025032EC6
S1131EB0322F22952F700226269532272327220FB0
S1131EC0220F220F202579012091540230915502CE
S1131ED00DB407FEFDCF8EB5082F1127C9010E944E
S1131EE05602FC01008303C0E1E0EE2EF12C289A97
S1131EF085E08093D90B10924702EF2809F000C2C5
S1131F00E0905402F0905502C7010E944902282F24
S1131F103327C22F80918A08823029F580916F007F
S1131F208D7F80936F0010923109E091A209F091A6
S1131F30A309222329F0BF0180E00E943D020CC0C6
S1131F4081E090E002C0880F991F2A95E2F7982F4C
S1131F50909580A9892380AB10928A081092100C66
S1131F6080E00E943202CC2309F0DBC0C7010E944A
S1131F701E038823C1F013E0612F86EA99E00E94D2
S1131F80580282E090E08093A709C093A809F70162
S1131F9083818093A90986EA99E00E94EC0B882347
S1131FA011F410938A080091840010918500C701F0
S1131FB00E941E03882311F0045E1C4F10938302B9
S1131FC0009382028091840090918500081B190B74
S1131FD0C801101611066CF42091100C222331F460
S1131FE00E94CF0280E88093100C03C020682093E5
S1131FF0100CF70181859927782F6627808599270A
S1132000682B792B80915E02282F3327F901E20F88
S1132010F31FE354F44F808191818617970799F455
S1132020F901ED5BF34F80819091790A891711F4DE
S1132030C90167C0892F8F5F8093790A808310E874
S113204045C0CA015EC010E0A12F312FC3E4DCE01B
S113205040E050E0FA01E40FF51FE354F44F8081AF
S113206091812091790A8617970761F430935E0273
S11320708881821731F3822F8F5F8093790A888356
S113208010E80CC08881281B121710F4122FA32FFC
S11320903F5F4F5F5F4F21963530E0F23530B1F44A
S11320A0A0935E02BB27FD01EA0FFB1FE354F44F2C
S11320B071836083FD01ED5BF34F8091790A8F5F3B
S11320C08093790A8083A35BB34F1C922091790A91
S11320D0822F99278F7790708F37910579F41F3766
S11320E068F0922F9078E3E4FCE034E080818F671D
S11320F0821390833150319637FFF8CF80915E027E
S11321009927F7019381A82FBB27FD01E35BF34FC8
S1132110808180FF08C0FD01ED54F54F8081981740
S113212021F4C70125C081608083AD54B54F9C93D1
S11321308FB7F894182F8091EB09833010F0E701E2
S113214015C0E0915602E80FE33008F0E350FF2792
S1132150EE0FFF1FE65BFD4FC081D181F182E0826B
S11321608F5F8093EB0981E10E94A5011FBFCE011F
S11321709093550280935402C3C0892F81508330B9
S113218008F09DC081508230F0F44091D90B413069
S1132190D1F420E030E080913109882311F421E06A
S11321A030E0232B81F02F9883E08093B80A40938A
S11321B0310980918400909185006BE273E00E9464
S11321C0A60282E067C0933009F041C08091D90B28
S11321D08330E9F50E94AD0B8823C9F128988FE874
S11321E08EBD0DB407FEFDCF8EB51EBC0DB407FE2B
S11321F0FDCF8EB5289A8091810080648093810000
S113220080E286BB80916F00806280936F00909122
S11322107A029066289888EC8EBD0DB407FEFDCF37
S11322208EB59EBD0DB407FEFDCF8EB5289A2898B5
S113223082EC8EBD0DB407FEFDCF8EB586E08EBD5B
S11322400DB407FEFDCF8EB5289A84E023C080919B
S113225047028150823000F58091D90B8530E1F43A
S11322600E94AD0B8823C1F0289882EC8EBD0DB47A
S113227007FEFDCF8EB583E08EBD0DB407FEFDCF06
S11322808EB5289A80916F008F7D80936F00109295
S1132290B80B83E08093D90B90914702913041F4BD
S11322A08091D90B833061F52F9A9093D90B25C077
S11322B0923031F58091D90B833011F51EC09730DF
S11322C0F9F40E94AD0B8823D9F090917A029066BC
S11322D0289888EC8EBD0DB407FEFDCF8EB59EBD4B
S11322E00DB407FEFDCF8EB5289A8091D90B8530A9
S11322F021F484E08093D90B03C088E080934702E3
S113230080914702883029F4109247028FE00E949E
S1132310A50180914702882309F58091D90B853066
S1132320E9F48091B80B8823C9F480918A08882342
S1132330A9F48091100C882389F420E030E0809186
S11323403109882311F421E030E0232B39F0809106
S11323504602813019F480E10E94A5018091470270
S1132360882311F40E94DA0180913109823009F046
S1132370A9C0109231098091B80A9927813091053A
S113238061F0823091050CF49DC08230910509F40E
S113239074C0039709F479C095C08091840090912A
S11323A085000091820210918302081B190B809111
S11323B0100C803859F41092100C80914602813030
S11323C009F080C080E10E94A5017CC087FF05C0A0
S11323D01016110614F4C5E02AC0C0918408D091E7
S11323E0850880918A088823E1F4CE010E94EC0BD1
S11323F09927282F8823B1F481E090E0022E02C0AF
S1132400880F991F0A94E2F7982F909588A9892339
S113241088AB81E080938A08D093A309C093A20972
S113242001C025E0822F9927C82F882311F120911C
S1132430100C822F99278F77019759F42078226006
S11324402093100C80E198E00E94EE020E94CF02DB
S113245039C027FF0AC0101611063CF480E88093A7
S1132460100CC8010E94CF0202C01092100C8C2FD5
S113247009C083E08093100C25C010928A08109242
S1132480100C80E00E9432021DC08091D90B823072
S113249021F483E08093D90B13C0809147028630E6
S11324A079F410924702289881E88EBD0DB407FE96
S11324B0FDCF8EB51EBC0DB407FEFDCF8EB5289A98
S11324C00E947E128FB7F894282F332780917702C9
S11324D0813021F4109277022FBF05C081E08093F0
S11324E077022FBFF1CADF91CF911F910F91FF9017
S11324F0EF90DF90CF90BF90AF9008958FB7F8948E
S1132500282F332780917702882329F080688093CD
S113251077022FBF089581E0809377022FBF0E9436
S11325205A0D08958FB7F894282F33278091770296
S1132530815080937702803811F02FBF089581E095
S1132540809377022FBF0E945A0D0895CF938FB7BF
S1132550F894282F3327809177028F5F8093770236
S11325602FBF80914602882311F0C5E028C08091D6
S11325704702882371F48091D90B813069F420E0FB
S113258030E080913109882311F421E030E0232BDD
S113259041F485E090E00CC0853019F489E090E0C6
S11325A007C083E0809347020E947E1280E090E09F
S11325B09927C82F882319F484E0809346020E9447
S11325C092128C2F9927CF9108950F931F93CF9335
S11325D0DF938C018EE190E00E948422DC01EC0107
S11325E02296F8018CE1019009928150E1F711964D
S11325F01C921E928091860890918708892B49F439
S1132600B0938908A0938808B0938708A09386089C
S11326100AC0E0918808F0918908B183A083B0933F
S11326208908A0938808DF91CF911F910F91089595
S11326308091310299278C3118F4282F332702C056
S11326402CE130E08CE1E6EEFBE011928A95E9F7AB
S113265040E050E042175307E0F480913302909138
S11326603102A6EEBBE0E82FFF27E754F54FE081E7
S1132670992329F08F5F8A3F09F480E09150ED930C
S11326804F5F5F4F4217530770F39093310280936B
S113269033024CE16AED7BE08FEF9FEF0E94AA07C3
S11326A0882319F088E00E94A5010895662359F44F
S11326B080913102882319F00E941813089581E053
S11326C080933002089588E00E94A5010895BF9286
S11326D0CF92DF92EF92FF920F931F93CF93DF93EA
S11326E06B01B42EC82FDD27FE01EC0FFD1FED5149
S11326F0F64F1182108210920A0220E08091E309C1
S11327009091E409892B19F08091D20B80FD21E08E
S113271010920A02222319F081E080930A02809128
S11327200A028823D1F40091E3091091E409C80155
S11327300E94A607E82EFF24C8010E949C07BC0142
S1132740F80181859927282FA8018E2D0E9426063D
S1132750882319F087E00E94A501CD2B21F46B2D6D
S1132760C6010E945613DF91CF911F910F91FF90E4
S1132770EF90DF90CF90BF9008952F923F924F92A9
S11327805F926F927F928F929F92AF92BF92CF92FD
S1132790DF92EF92FF920F931F93CF93DF93CDB706
S11327A0DEB76C970FB6F894DEBF0FBECDBF992786
S11327B0AA27BB27FC01459708F00CC6EA59FF4F2E
S11327C0EE0FFF1F0590F491E02D0994B0E00B2F5C
S11327D01B2F8FB7F894382FB0930F0C4B2F809189
S11327E07B0A882309F441E0212F883009F421E091
S11327F0912F893009F491E0222311F4992359F09F
S113280010937B0A8091EC09E82FFF27EE0FFF1F3E
S1132810E559F64F10833FBF222311F4992311F198
S11328208091D10B8F5F8093D10B809134098334D5
S113283099F48FB7F894282F8091D9099091DA09E7
S1132840891741F0892F8F5F8093DA09863010F061
S11328501092DA092FBF09C0B0E0222309F4B1E0D5
S113286001E003C0442309F45BC08FB7F8949927AF
S1132870509145028FBF552349F08FB7F894282F04
S113288033278AE080937B0A2FBF4AC08FB7F8941E
S11328909927A0916B0940916D098FBF8FB7F89468
S11328A0282F33279091D9098091DA09981709F4D0
S11328B051E02FBF552351F5AA2341F58FB7F89462
S11328C0682F772782E080936B094A2F8FB7F8949B
S11328D0282F33275A2F9091D9098091DA09981714
S11328E009F451E02FBF552339F48091DA09E82F18
S11328F0FF27E752F64F428140936C096FBF83E490
S113290080933409A093EC0911E00AC0415042308D
S113291038F485E48093340981E08093EC09182F1E
S1132920002349F08FB7F8949927B0933C028FBFE6
S113293084E00E94A50180917B0A8A3019F40E94E8
S1132940F40748C5112309F445C58FB7F894282F17
S1132950332710924A0C1092490C1092320981E0EC
S113296080937B0A2FBF0E94250A882309F432C56D
S11329708FB7F894282F332789E080937B0A2FBFE1
S11329800E94140627C58091C1008F7B8093C100EB
S11329908091C1008F778093C10010927A0A1092BF
S11329A087028091C10088608093C1008091C1003A
S11329B080618093C1008091C10080688093C100D0
S11329C080913002882309F005C584E192E0909358
S11329D0590C8093580C8FB7F894282F332781E033
S11329E0809330022FBF0E94A612F4C483E098C2E1
S11329F08091C100877F8093C1008091C1008F7E48
S1132A008093C1008FB7F8949927109230024EC476
S1132A101092400210923F028FB7F8949927E090E9
S1132A203C028FBF80913B02882311F073E0E72EB4
S1132A3080913A020091410210914202882309F0E8
S1132A40C9C4C8010E94A607F82E80910A028823EF
S1132A5051F46091E3097091E4096017710719F466
S1132A604E2D0E9467136CE0E62EFE1409F0B2C4EA
S1132A7010922E02AFC48FB7F89499272091380290
S1132A800091360210913702F09059028FBF222331
S1132A9039F4C8010E94A6078C3011F40E940A067A
S1132AA08FB7F894EF2DFF27EE0FFF1FE35FFD4F65
S1132AB01183008390914402FF2011F09B7F01C099
S1132AC09D7F9093440210923902F0C38091D20BFF
S1132AD0882309F47FC401E010E03091D20B832FE6
S1132AE08023B1F0812F9927FC01EE0FFF1FED51D8
S1132AF0F64F4081518111821082202F209532237C
S1132B003093D20B892B21F463E0CA010E9456133F
S1132B10000F1F5F183008F35DC480910A02E82F8C
S1132B20FF27EE0FFF1FED51F64F41E060817181E9
S1132B300E9467134FC44CE16AED7BE08FEF9FEF77
S1132B400E94AA07882309F445C488E0E9C140919A
S1132B507602442349F58FB7F894282F3327E09061
S1132B605002F09051020091520210915302809150
S1132B70D30B9091D40BA091D50BB091D60BE80E4A
S1132B80F91E0A1F1B1F2FBF8091C80B9091C90B00
S1132B90A091CA0BB091CB0B409376029C01AD017E
S1132BA0C801B7010E94E80A0E94350ADC01CB0182
S1132BB0BC01CD013FC00E94350A5B016C012FEFBF
S1132BC03FEF4FEF5FE770E08FB7F894992770936A
S1132BD089028FBFEDEEF9E063E0808581FF1CC0C0
S1132BE080819181A281B38186017501E81AF90A75
S1132BF00A0B1B0BD801C701E480F58006811781FD
S1132C00E81AF90A0A0B1B0BE216F3060407150768
S1132C101CF4A801970171E06150399667FFDDCF7C
S1132C20772309F4D7C312161306140615062CF0DD
S1132C30C601B5010E948606CDC32093C80B30930C
S1132C40C90B4093CA0B5093CB0B81E0809376025F
S1132C50C601B5010E94E80ABDC390912F0280917C
S1132C603009882319F171E060E0A92F309130090F
S1132C70832F8723B1F0862F9927FC01EE0FFF1FC6
S1132C80E453F44F4081518111821082272F209503
S1132C90322330933009892B21F440585A4009F4E7
S1132CA0A0E0770F6F5F683008F39A2F90932F029C
S1132CB091C380910902082F1127F801E00FF11F39
S1132CC0E453F44FE080F180118210820E945D058C
S1132CD0012B09F07FC310E8E1161AE0F10609F0B0
S1132CE079C310922F0276C38FB7F894282F332715
S1132CF080917B028093030282E0809329022FBF9C
S1132D0080910302E82EFF24E114F10409F062C368
S1132D1080917C0290917D020E94A403882309F48F
S1132D2059C380E00E94E30380917C0290917D026C
S1132D30D0900902DD2009F04DC30091CC0B109115
S1132D40CD0B0817190709F045C3F092CD0BE0929B
S1132D50CC0B0E945D0500581A4009F03BC3D09289
S1132D602F0238C30091570210915802C8010E94E3
S1132D707D02885FF801E81BF10983A994A9892BD6
S1132D8021F061E0C8010E94810380915702909173
S1132D9058020E946B03882309F41CC3C0C08091AD
S1132DA04602109246028430B1F448EE53E060E0EB
S1132DB070E080E00E940D0B40E65AEE60E070E0A7
S1132DC081E00E940D0B44E650E060E070E082E098
S1132DD00E940D0BFFC2853009F4FCC2863009F451
S1132DE0F9C280934602F6C28FB7F8949927D0901F
S1132DF074028FBF80914602823011F4DD2039F0D5
S1132E008091A4098F5F8093A409863020F083E029
S1132E10809346023FC08FB7F894282F33278091C0
S1132E2077028F5F809377022FBF40917C0A509185
S1132E307D0A8091100C882351F420E030E08091C9
S1132E403109882311F421E030E0232B19F485E0C3
S1132E5090E00FC0509385084093840881E08093EC
S1132E60100C86EB93E20E94EE020E94CF0280E0F7
S1132E7090E09927D82E882311F482E007C080912E
S1132E80A409853011F483E001C081E080934602F7
S1132E900E9492128090460233E0831609F09AC28F
S1132EA01092460280917C0A90917D0AE090800203
S1132EB0F09081020894E11CF11CF0928102E092EE
S1132EC08002BC0180E00E94DD02882311F080E0D2
S1132ED02BC00091570210915802C8010E947D0234
S1132EE0885FF801E81BF10983A994A9E816F9069B
S1132EF0D0F4C8010E944F05009789F05C01CC24EE
S1132F00DD240E94350ADC01CB0121E0E22E96018A
S1132F108501AC01BD01882D0E94EB055BC28EE0EA
S1132F200E94A50157C28D2D0E94A40553C28FB7DC
S1132F30F894282F33278091EB09882309F446C29B
S1132F4080915602E82FFF27EE0FFF1FE65BFD4F2F
S1132F50A080B1802FBFC5010E941103282F332701
S1132F60F501E20FF11D80818F3309F013C1822F27
S1132F708F5FF501E80FF11DF080C5010E94730217
S1132F808C010E9414030817190721F00F5F1F4FCB
S1132F9009F002C1E6E0FE1609F0FEC06CE1C501CD
S1132FA00E9454037C01892B09F4F6C084E0C82EE6
S1132FB0D12CCE0CDF1CF70184819927382F2227CE
S1132FC0F60181819927282B392BF901EE0FFF1F78
S1132FD0EE0FFF1FE20FF31FEF5EF34F2083C501D7
S1132FE00E945602FC018181482F5527F7018481F4
S1132FF09927982F8827F60121813327822B932B39
S1133000FC01EE0FFF1FEE0FFF1FE80FF91FEE5E2E
S1133010F34F442339F083E0489FA00111244E5517
S1133020504002C042E85FEF51834083F70184813E
S11330309927982F8827F60121813327822B932BF8
S11330408C01000F111F000F111F080F191F0F5EB5
S1133050134FC5010E945602FC018081F80183834D
S1133060F70184819927982F8827F6012181332736
S1133070822B932BFC01EE0FFF1FEE0FFF1FE80FB7
S1133080F91FEF5EF34F81E08483F701878199276D
S11330908430910509F43FC0853091051CF40397F1
S11330A049F07AC08630910509F470C0079709F495
S11330B047C072C09E012F5F3F4FD901F701389678
S11330C086E001900D928150E1F780912C0290915D
S11330D02D028F3F910524F010922D0210922C02A4
S11330E080912C0290912D02FC01EE0FFF1FEE0F38
S11330F0FF1FE80FF91FE80FF91FE657FD4FD9012D
S113310026E00D9001922150E1F7019690932D0253
S113311080932C0241C0C7010E94E51240E050E0B8
S11331204A8B498BF70182819927782F66278381FF
S11331309927682B792B8E010F5E1F4F25E01FC046
S1133140C7010E94E5121F82DE011896EAE1FCE045
S1133150808135968D930CE0E234F007C9F3C4F313
S1133160F70182819927782F662783819927682B15
S1133170792B8E01095F1F4F28E040E050E08091D9
S11331801202909113020E94D20406C0C7010E9449
S1133190E51202C00E9414038FB7F894482F5527F4
S11331A080915602E82FFF27EE0FFF1FE65BFD4FCD
S11331B0B182A0828F5F80935602833010F0109208
S11331C056028091EB0981508093EB094FBFAFCE3B
S11331D08FB7F894E82EFF24FC8AEB8A20908B08A2
S11331E030908C0840908D0850908E086624BEE480
S11331F0AB2EA3E8BA2EC62CD62CE62CF62C062D24
S1133200162D222D332D442D552D662D762D862DEC
S1133210962D0E9449202D8B3E8B4F8B588F698FA2
S11332207A8F8B8F9C8F822E932EA42EB52E240101
S11332303501769467945794479400E20E94532191
S1133240A22EB32EC42ED52EA6019501240D351D14
S1133250461D571D57FF05C05F772F5F3F4F4F4FE8
S11332605F4F20938B0830938C0840938D085093C4
S11332708E08FB88FFBE8FB7F894992730937902A4
S11332802093780213C08FB7F89499271092780A84
S11332901092770A1092D80B1092D70B1092490211
S11332A0109248021092E2091092E1098FBF92C075
S11332B08FB7F894282F3327809135098093000223
S11332C082E0809328022FBF80910002882309F0B6
S11332D081C0209A289A8091D90B882309F078C05C
S11332E08EEF91E0019701960197E1F716982F98D8
S11332F086E090E0019701960197E1F7169A2898E5
S113330083EC8EBD0DB407FEFDCF8EB51EBC0DB48F
S113331007FEFDCF8EB5289A289882EC8EBD0DB499
S113332007FEFDCF8EB588E08EBD0DB407FEFDCF40
S11333308EB5289A8EEF91E0019701960197E1F7F7
S113334028988EEC8EBD0DB407FEFDCF8EB58DE4AE
S11333508EBD0DB407FEFDCF8EB5289A289889EC52
S11333608EBD0DB407FEFDCF8EB587EC8EBD0DB4BA
S113337007FEFDCF8EB5289A289885EC8EBD0DB436
S113338007FEFDCF8EB58FE88EBD0DB407FEFDCFD1
S11333908EB5289A8FE08093A50981E180937A0203
S11333A0289888EC8EBD0DB407FEFDCF8EB581E75D
S11333B08EBD0DB407FEFDCF8EB5289A2F9A81E0FD
S11333C08093D90B80E00E94DA0104C02FBF02C0B1
S11333D00E947E126C960FB6F894DEBF0FBECDBF6E
S11333E0DF91CF911F910F91FF90EF90DF90CF90DD
S11333F0BF90AF909F908F907F906F905F904F9011
S11334003F902F9008958091CE0B8F3F79F0282F15
S11334103327F901E15AFD4F80818093CE0B8F3F12
S113342011F48093480C8FEF808302C02FEF30E0BB
S11334302F3F19F480E090E00895822F0E94BD137D
S113344081E090E00895CFEFD1E2DEBFCDBF8FB72A
S1133450F894C82F45E150E06FEF70E08FE592E0FB
S11334600E947D238FEF8093CE0B8093480C569857
S11334705E9854985C9880916F008F7D80936F0064
S1133480209A289A279A2F980E9A169A8FE699E0EE
S1133490909355028093540210928F088AE580938A
S11334A07F0281E08093810080E28093B60083E014
S11334B08093B10020918400309185004AE7809187
S11334C08400909185008217930708F441509C0171
S11334D04423A9F79091B2008091B2008917E1F3D7
S11334E020918400309185009091B2008091B200C7
S11334F08917E1F38091840090918500821B930BDE
S1133500409635E0969587953A95E1F79093D00BE0
S11335108093CF0B1092B1008091B1008093810011
S1133520809181008093B6001092B20010928500C1
S1133530109284008FEF87BB87B386BB8091B6005F
S1133540282F33272571307021153105B9F70A9AD0
S1133550099A089A129A119A109A28B98FEF87B982
S11335600C981498309385002093840080916F0008
S1133570816080936F0080918100887F8260809356
S113358081003093950020939400809171008160B4
S11335908093710080919100887F82608093910074
S11335A081E085BF0E94031A282F33272223D1F7F5
S11335B08FEF80933309822F0E945E0B8091120259
S11335C0909113020196AA27BB2780938B089093AE
S11335D08C08A0938D08B0938E0885E998E022E0CA
S11335E0EAE4F2E0819391932150C39627FFFACF46
S11335F02FEF3FEF84E0EDEBFBE02193319381501B
S113360087FFFBCF809112028295807F8093900880
S11336108FEF80937E028091B60080628093B60023
S11336208091B60081FDFCCF82E08093B000809150
S1133630B60080FDFCCF83E08093B1008091B6009A
S113364083FDFCCF86EE8093B3008091700082608E
S1133650809370000E945D0A0091CF0B1091D00BF3
S1133660C801AA27BB272CE0880F991FAA1FBB1FDC
S11336702A95D1F7BC01CD0120E031EE40E050E0C5
S11336800E940C22DA01C90101978093C400892F9A
S113369099278093C50082E08093C00086E08093E0
S11336A0C2001092C100C801AA27BB27FCE0880F02
S11336B0991FAA1FBB1FFA95D1F7BC01CD0120E0C9
S11336C031EE40E050E00E940C22DA01C90101977A
S11336D08093CC00892F99278093CD0082E080933A
S11336E0C80086E08093CA001092C90084E490E088
S11336F09093BA0B8093B90B10926B0910926D09D9
S113370010927B0A10923209109234091092D10B54
S113371010924A0C1092490C10920F0C1092EC0962
S11337201092B40B1092B30B1092840210927F0A81
S11337301092C70B109288021092E8091092E709C0
S11337401092DA091092D9090E94031A8823E1F72A
S1133750CFBF789481E00E94A5018FB7F894482FD9
S113376069C080916E00992786709070892B81F4CE
S113377080916F0099278E729070892B49F4809103
S11337807100282F33272E7230702115310519F05E
S113379080E090E01AC00CB407FC0CC08091C1001A
S11337A0807E41F48091C900807E21F48091BC0028
S11337B082FF02C0C90109C080917A0087FF03C05B
S11337C081E090E002C085E090E0282F80917000B5
S11337D0992783709070892BC1F08091B600992746
S11337E08A719070892BC9F78091B3009091B200CF
S11337F0891B8C3020F08091B200853F18F082E064
S113380090E005C083E090E002C085E090E0E82FFE
S1133810281708F4E22F83B7807FFF27EA50FF4F71
S11338209491892B816083BF78948895F89483B7A9
S11338308E7F83BF8091CE0B8F3F81F0282F33275B
S1133840F901E15AFD4F80818093CE0B8F3F11F433
S11338508093480C8FEF8083C90102C08FEF90E002
S11338608F3F09F47ECF4FBF0E94BD1376CF1F92C6
S11338700F920FB60F9211242F933F934F935F93A0
S11338806F937F938F939F93AF93BF93EF93FF9324
S11338908091C00087FF42C06091C600E091E909B1
S11338A0F091EA09309719F180910D0C90910E0C6A
S11338B0E80FF91F6083019690930E0C80930D0C12
S11338C020914B0C30914C0C8217930738F11092D5
S11338D0EA091092E90980917A0A8330F9F080911B
S11338E0C1008F778093C10010927A0A17C06E3797
S11338F019F460E081E010C0809134026D3721F446
S11339008260809334020AC081FF05C08D7F80935A
S1133910340280E2682780E00E946908FF91EF91F9
S1133920BF91AF919F918F917F916F915F914F91D3
S11339303F912F910F900FBE0F901F901895789480
S11339401F920F920FB60F9211241F932F933F9340
S11339504F935F936F937F938F939F93AF93BF9393
S1133960CF93EF93FF93209185023091860280914B
S1133970BB0B9091BC0B2817390780F4E0913609F2
S1133980F0913709E20FF31F2F5F3F4F3093860208
S11339902093850280810E94C809D4C010923709FF
S11339A010923609109287028091C1008F7B809318
S11339B0C1008091340280FF0EC08E7F8093340258
S11339C080917E0A8093750261E070E085E792E061
S11339D00E94D609B7C080917B0A9927843091054B
S11339E009F492C0853091054CF48230910509F1B7
S11339F0833091059CF5019789F09FC0863091052D
S1133A0009F490C0863091050CF485C08730910587
S1133A1009F48FC0089709F493C08FC080913409CA
S1133A200E940A0AC82F83E080937B0A60913409BC
S1133A300AC08091D10B0E940A0AC82F83E08093A8
S1133A407B0A6091D10B8091490C90914A0C0E94A1
S1133A505A0890934A0C8093490C6DC08FB7F89420
S1133A60182F8091EC09E82FFF27EE0FFF1FE45970
S1133A70F64F80810E940A0AC82F8091EC09E82F32
S1133A80FF27EE0FFF1FE459F64F60818091490C28
S1133A9090914A0C0E945A0890934A0C8093490CC6
S1133AA0809132098F5F809332098091EC098130D3
S1133AB031F580913D02E0914102F0914202E80F1C
S1133AC0F11DE081982F9F5F90933D0280913E020B
S1133AD0891730F482E080936D0980E090E002C0A1
S1133AE08E2F9927E82FFF2780916D09823039F0B6
S1133AF0809132098F3F19F0E0936E0903C084E08E
S1133B0080937B0A1FBF17C08091490C0E940A0A48
S1133B10C82F85E00BC080914A0C0E940A0AC82F66
S1133B2086E004C00E94250AC82F87E080937B0AA0
S1133B3002C088E003C0CC2329F089E080937B0A8B
S1133B400E941406FF91EF91CF91BF91AF919F9185
S1133B508F917F916F915F914F913F912F911F9121
S1133B600F900FBE0F901F9018951F920F920FB6D3
S1133B700F9211248F938091C80087FF02C0809117
S1133B80CE008F910F900FBE0F901F9018957894D0
S1133B901F920F920FB60F9211240F900FBE0F9029
S1133BA01F90189578941F920F920FB60F921124BC
S1133BB00F900FBE0F901F90189578941F920F923C
S1133BC00FB60F9211240F900FBE0F901F901895EF
S1133BD078941F920F920FB60F9211240F900FBE7C
S1133BE00F901F90189578941F920F920FB60F9212
S1133BF011248F939F9380919400909195009F91AD
S1133C008F910F900FBE0F901F90189578941F926C
S1133C100F920FB60F9211242F933F938F939F937C
S1133C208FB7F894282F33278091E5099091E609FE
S1133C3001969093E6098093E5092FBF9F918F9198
S1133C403F912F910F900FBE0F901F9018958FB733
S1133C50F894282F332780913002823021F42FBF2B
S1133C6080E090E0089540E050E0809131028823A4
S1133C7011F441E050E0452B21F02FBF81E090E0AA
S1133C80089582E0809330022FBF0E94181380E0D1
S1133C9090E00895CF93C82F80913002813049F489
S1133CA0809131028D3728F082E0809330020E94A7
S1133CB018138FB7F894282F909131029A3FA0F4EB
S1133CC080913202E82FFF27E754F54FC0838F5FBE
S1133CD0809332028A3F11F4109232029F5F9093D4
S1133CE0310280E090E002C081E090E0892B21F471
S1133CF02FBF80E090E003C02FBF8FEF9FEFCF91E5
S1133D0008951F920F920FB60F9211242F933F9391
S1133D104F935F936F937F938F939F93AF93BF93CF
S1133D20EF93FF938091B0008093B0008091B60030
S1133D3081FDFCCF8091B300992701969C01442713
S1133D40552780915A0290915B02A0915C02B09138
S1133D505D02820F931FA41FB51F80935A02909394
S1133D605B02A0935C02B0935D0278940E945D0AAA
S1133D70FF91EF91BF91AF919F918F917F916F913F
S1133D805F914F913F912F910F900FBE0F901F9015
S1133D9018951F920F920FB60F9211248F93809152
S1133DA0B0008093B0008091B60081FDFCCF8F916C
S1133DB00F900FBE0F901F9018951F920F920FB681
S1133DC00F9211248F929F92AF92BF92CF92DF9263
S1133DD0EF92FF920F931F932F933F934F935F9311
S1133DE06F937F938F939F93AF93BF93CF93DF93FF
S1133DF0EF93FF938EB5282F3327E091770AF09144
S1133E00780A309739F08091E1099091E209E80F3E
S1133E10F91F20838091E1099091E2090196909322
S1133E20E2098093E10980E00E942D0B8091E10971
S1133E309091E20920914802309149028217930738
S1133E4008F045C0E090D70BF090D80B8090770A2B
S1133E509090780A6C01AC01465F5F4F24173507D8
S1133E6008F09A0159010894A108B1088A159B0524
S1133E70E0F48C01080D191DEC01CE0DDF1DE114D9
S1133E80F10411F0888101C080E00E944D0D81147D
S1133E90910411F0F80180830894C11CD11C21966F
S1133EA00F5F1F4FCA14DB0450F381E00E942D0BF7
S1133EB0E114F10431F0EC0CFD1CF70180818EBD9E
S1133EC001C01EBCD092E209C092E10911C0109257
S1133ED0780A1092770A1092D80B1092D70B10928E
S1133EE04902109248021092E2091092E1098EB53B
S1133EF0FF91EF91DF91CF91BF91AF919F918F91FE
S1133F007F916F915F914F913F912F911F910F91ED
S1133F10FF90EF90DF90CF90BF90AF909F908F90E5
S1133F200F900FBE0F901F90189578941F920F92C8
S1133F300FB60F9211242F933F934F935F936F9378
S1133F407F938F939F93AF93BF93EF93FF9380914E
S1133F506F008D7F80936F0078948FB7F894282F2B
S1133F60332780913109813019F482E0809331093B
S1133F702FBF0E947E12FF91EF91BF91AF919F914D
S1133F808F917F916F915F914F913F912F910F90FE
S1133F900FBE0F901F90189578941F920F920FB632
S1133FA00F9211240F900FBE0F901F9018957894C4
S1133FB01F920F920FB60F9211240F900FBE0F9005
S1133FC01F90189578941F920F920FB60F92112498
S1133FD02F933F934F935F936F937F938F939F930D
S1133FE0AF93BF93EF93FF938091840090918500EA
S1133FF080918600909187002FB7F894332790938F
S11340002F0980932E0981E08093B80B2FBF0E9463
S11340107E12FF91EF91BF91AF919F918F917F910C
S11340206F915F914F913F912F910F900FBE0F9021
S11340301F90189578941F920F920FB60F92112427
S11340402F933F938F939F93AF93BF938FB7F8941E
S1134050282F33278091910890919208A09193087A
S1134060B09194080196A11DB11D8093910890937D
S11340709208A0939308B09394082FBFBF91AF9177
S11340809F918F913F912F910F900FBE0F901F9092
S11340901895A0E3B0E0EFE4F0E20C944D22222E58
S11340A0332E442E552E662E772E882E992E2A2DA9
S11340B03B2DA8E0FE013196AA2E1192AA94E9F7AD
S11340C029823A824B825C826D827E828F829886BC
S11340D0FE013996BA2E1192BA94E9F729873A87E4
S11340E0CB86DC86ED86FE860F87188BFE017196E3
S11340F01192AA95E9F7C980DA80EB80FC80C9A601
S1134100DAA6EBA6FCA6870176018FEF9FEFA0E06D
S1134110B0E0E822F9220A231B23A9A4BAA4CBA461
S1134120DCA416014424552489859A85AB85BC8575
S11341308DA79EA7AFA7B8AB5C016D018FEF9FEF72
S1134140A0E0B0E0A822B922CA22DB228DA59EA558
S1134150AFA5B8A93D0188249924C801B701A601D7
S113416095010E942E2269A37AA38BA39CA3C80164
S1134170B701A40193010E942E226DA37EA38FA3F5
S113418098A7C201B101A60195010E942E227B01CC
S11341908C01C201B101A40193010E942E229B0152
S11341A0AC01A9A0BAA0CBA0DCA0C601AA27BB275A
S11341B0ADA0BEA0CFA0D8A4A80EB91ECA1EDB1EF7
S11341C0AE0CBF1CC01ED11EADA2BEA2CFA2D8A6EB
S11341D0AE14BF04C006D10620F4205030404F4F27
S11341E05F4FCDA0DEA0EFA0F8A4C701AA27BB278C
S11341F0820F931FA41FB51F8D8F9E8FAF8FB8A3FF
S1134200A6013327222789A19AA1ABA1BCA1A07042
S1134210B070280F391F4A1F5B1F298F3A8F4B8FAD
S11342205C8FA98CBA8CCB8CDC8CED8CFE8C0F8DC6
S113423018A1ED8AFE8A0F8B188F2D853E854F8538
S1134240588969A57AA58BA59CA50E942E223B01BD
S11342504C018D819E81AF81B885BC01CD012DA516
S11342603EA54FA558A90E942E22DC01CB01680E61
S1134270791E8A1E9B1E8D899E89AF89B88D860DF5
S1134280971DA81DB91D8D8B9E8BAF8BB88F6D8923
S11342907E898F89988D2A2D3B2D4C2D5D2DE2E151
S11342A0E0960C9469228F929F92AF92BF92CF9224
S11342B0DF92EF92FF920F93CF93DF93CDB7DEB7E8
S11342C068970FB6F894DEBF0FBECDBFE82E00236B
S11342D049F4298B3A8B4B8B5C8B6D8B7E8B8F8B4C
S11342E0988F6CC088E0FE01319611928A95E9F7A7
S11342F029833A834B835C836D837E83EF82988723
S113430040E2401B14160CF041C08D819E81AF81A8
S1134310B8856C017D0104C0CC0CDD1CEE1CFF1CB7
S11343204A95D2F7202F332727FD3095022E04C05B
S1134330B695A795979587950A94D2F78D879E870A
S1134340AF87B88B89819A81AB81BC8104C0B69553
S1134350A795979587952A95D2F78C299D29AE29FB
S1134360BF2989879A87AB87BC8729853A854B857E
S11343705C856D857E858F859889298B3A8B4B8BDF
S11343805C8B6D8B7E8B8F8B988F18C01D861E86E1
S11343901F86188A842F992787FD90952227332713
S11343A0281B390B8D819E81AF81B88504C0B695D9
S11343B0A795979587952A95D2F7D3CF29893A89D6
S11343C04B895C896D897E898F89988D68960FB633
S11343D0F894DEBF0FBECDBFDF91CF910F91FF9058
S11343E0EF90DF90CF90BF90AF909F908F90089503
S11343F0AA1BBB1B51E107C0AA1FBB1FA617B70707
S113440010F0A61BB70B881F991F5A95A9F7809522
S11344109095BC01CD010895A1E21A2EAA1BBB1BE5
S1134420FD010DC0AA1FBB1FEE1FFF1FA217B3077C
S1134430E407F50720F0A21BB30BE40BF50B661F92
S1134440771F881F991F1A9469F760957095809556
S113445090959B01AC01BD01CF010895629FD001ED
S1134460739FF001829FE00DF11D649FE00DF11D2B
S1134470929FF00D839FF00D749FF00D659FF00DDA
S11344809927729FB00DE11DF91F639FB00DE11DC7
S1134490F91FBD01CF01112408952F923F924F922D
S11344A05F926F927F928F929F92AF92BF92CF92C0
S11344B0DF92EF92FF920F931F93CF93DF93CDB7C9
S11344C0DEB7CA1BDB0B0FB6F894DEBF0FBECDBF41
S11344D009942A88398848885F846E847D848C8412
S11344E09B84AA84B984C884DF80EE80FD800C811B
S11344F01B81AA81B981CE0FD11D0FB6F894DEBFFE
S11345000FBECDBFED010895CF93DF93AC010297A9
S113451010F442E050E020E030E0A091540CB0915F
S1134520550CBD01F901109709F44CC08D919C9173
S113453011978417950731F14817590738F4211555
S1134540310519F08217930708F49C01FD01A2813B
S1134550B381109759F721153105A1F1C901841BC5
S1134560950B049708F4A901DB01E0E0F0E0109753
S113457049F18D919C91119782179307F9F4421791
S1134580530779F4ED018A819B81309719F0938365
S1134590828304C09093550C8093540CCD010296F1
S11345A04DC0241B350BFD01E20FF31F41935193C2
S11345B0225030402D933C93CF0140C0FD01A28195
S11345C0B381D5CF8091520C9091530C892B41F437
S11345D080912402909125029093530C8093520C65
S11345E0E0912202F0912302309741F4EDB7FEB737
S11345F08091260290912702E81BF90BA091520C9E
S1134600B091530CAE17BF07B8F49F012A1B3B0BA4
S11346102417350788F0CA0102962817390760F075
S1134620CD01840F951F02969093530C8093520CE6
S11346304D935D93CD0102C080E090E0DF91CF9176
S11346400895CF93DF93009709F454C0DC011297C7
S1134650ED011B821A828091540C9091550C0097A5
S113466021F1FC0140E050E0EA17FB0718F1ED01ED
S1134670FB83EA832D913C911197C20FD31FCE0186
S113468002968E179F0771F48A819B81280F391F28
S11346902E5F3F4F11963C932E9382819381FD01AF
S11346A0938382834115510559F4B093550CA0931B
S11346B0540C20C0AF010280F381E02D3097A1F6A5
S11346C0EA01BB83AA83CA01029628813981820F39
S11346D0931F8A179B0771F48D919C911197280F52
S11346E0391F2E5F3F4F39832883FD0182819381D7
S11346F09B838A83DF91CF910895DC0101C06D9380
S10D470041505040E0F70895FFCF48
S113470AFFFFFFFFFFFF2201000101110A110A4402
S113471A0AFF010000000002000000004A1E000017
S10B472A000000005C0C2000FB
S9030000FC
